:020000040000fa
:10000000f07f00206d010000ad020000ad02000095
:1000100000000000000000000000000000000000e0
:10002000000000000000000000000000ad02000021
:100030000000000000000000ad020000ad02000062
:10004000ad020000ad020000ad020000ad020000f4
:10005000ad020000ad020000ad020000ad020000e4
:10006000ad020000ad020000ad020000ad020000d4
:10007000ad020000ad020000ad020000ad020000c4
:10008000ad020000ad020000ad020000ad020000b4
:10009000ad020000ad020000ad020000ad020000a4
:1000a000ad020000ad020000ad020000ad02000094
:0c00b000ad020000ad020000ad02000037
:020000040000fa
:1000bc00f8b5c046f8bc08bc9e467047e901000084
:1000cc00f8b5c046f8bc08bc9e467047c10100009c
:020000040000fa
:1000dc00204a214b70b50021934203d21970013391
:1000ec009342fbd1002503261c4803684168002b72
:1000fc0018d100292dd083680c30002b18d0002388
:10010c000022845c9c5401328a42fad333000b40a7
:10011c005a1e934189085918890040180368416890
:10012c00002be6d082680c30002a07d10029dcd0e5
:10013c0059181d7001338b42fbd1d6e70029dfd152
:10014c0033000b405a1e93418908591889004018f6
:10015c00e4e770bd00000020000000205002000009
:020000040000fa
:10016c000d4b002b00d098470c4b002b00d0984720
:10017c00fff7aeff0a4aff210a4b8b4393600a4bf1
:10018c0098470a4b002b00d09847094b002b00d006
:10019c00984700f077f8fee7000000000000000030
:1001ac0000ed00e00000000009020000000000006b
:0401bc00000000003f
:020000040000fa
:1001c00010b5064c2378002b07d1054b002b02d02d
:1001d000044800e000bf0123237010bd0000002090
:1001e0000000000000000000044b10b5002b03d0fd
:1001f0000349044800e000bf10bdc04600000000f5
:080200000400002000000000d2
:020000040000fa
:1002080070b500260c4d0d4c641ba410a64209d1f4
:100218000026fff74fff0a4d0a4c641ba410a642a4
:1002280005d170bdb300eb5898470136eee7b3002f
:10023800eb5898470136f2e7c8000000c8000000f4
:08024800c8000000cc0000001a
:020000040000fa
:100250001c0000200400000001000000000000005d
:10026000000000201c000000000000002000002012
:100270000400000001000000000000000000000079
:1002800000000000222222222222222222222222d6
:020000040000fa
:1002900080b582b000af00237b607b6801337b6058
:0c02a000c046c046c046c046c046fde750
:020000040000fa
:0202ac00fee76b
:00000001FF
